:020000040800F2
:10000000C804002045010008B506000845060008A0
:10001000B106000861030008331500080000000065
:10002000000000000000000000000000810800083F
:100030009504000800000000290700089509000841
:100040005F0100085F0100085F0100085F01000810
:100050005F0100085F0100085F0100085F01000800
:100060005F0100085F0100085F0100085F010008F0
:100070005F0100085F0100085F0100085F010008E0
:100080005F0100085F0100085F0100085F010008D0
:100090005F0100085F0100085F0100085F010008C0
:1000A0005F0100085F0100085F0100085F010008B0
:1000B000A10A00085F0100085F0100085F01000855
:1000C0005F0100085F0100085F0100085F01000890
:1000D0005F0100085D1200085F0100085F01000871
:1000E0005F0100085F0100085F0100085F01000870
:1000F0005F0100085F0100085F0100085F01000860
:100100005F0100085F0100085F0100085F0100084F
:100110005F0100085F0100085F0100085F0100083F
:100120005F0100085F0100085F0100085F0100082F
:10013000DFF80CD000F040F8004800473518000800
:10014000C80400200648804706480047FEE7FEE74F
:10015000FEE7FEE7FEE7FEE7FEE7FEE7FEE7FEE777
:10016000D509000831010008D2B201E000F8012BE6
:10017000491EFBD270470022F6E710B513460A4627
:1001800004461946FFF7F0FF204610BD30B50B4678
:10019000014600202022012409E021FA02F59D42B7
:1001A00005D303FA02F5491B04FA02F52844151E8B
:1001B000A2F10102F1DC30BD064C074D06E0E0681B
:1001C00040F0010394E8070098471034AC42F6D39E
:1001D000FFF7B2FFA8180008C818000810B540F2D1
:1001E0006271114800F0DFFF40F212710E4800F01A
:1001F000DCFF40F212710C4800F0D9FF40F212719E
:10020000094800F0D6FF40F21271084800F0CBFF19
:1002100040F26271054800F0C8FF40F26271034885
:1002200000F0C5FF10BD00000004004000080040C1
:1002300010B540F21271114800F0B5FF40F2127192
:100240000E4800F0B2FF40F212710C4800F0AFFF10
:1002500040F26271094800F0ACFF40F26271084858
:1002600000F0A1FF40F26271054800F09EFF40F2ED
:100270006271034800F09BFF10BD000000040040C5
:100280000008004010B540F21271114800F08BFFD9
:1002900040F262710E4800F088FF40F262710C4833
:1002A00000F085FF40F26271094800F082FF40F2E1
:1002B0006271084800F077FF40F26271054800F073
:1002C00074FF40F26271034800F071FF10BD00003E
:1002D000000400400008004010B540F212711148BF
:1002E00000F061FF40F262710E4800F05EFF40F2E4
:1002F00062710C4800F05BFF40F26271094800F047
:1003000058FF40F26271084800F04DFF40F2627100
:10031000054800F04AFF40F26271034800F047FFD1
:1003200010BD0000000400400008004010B5FFF7B9
:1003300055FF4FF4C87001F045FAFFF7A3FF4FF4E3
:10034000C87001F03FFAFFF749FF4FF4C87001F0A1
:1003500039FAFFF797FF4FF4C87001F033FA10BD78
:1003600000BFFEE710B50E488078052816D10C486E
:10037000C0780B2812D10A480079012804D002283D
:1003800005D0032809D105E0FFF77CFF05E0FFF762
:100390004FFF02E0FFF722FF00BF00BF10BD0000CB
:1003A0002400002038B507240025304881780079E2
:1003B00000EB4000401D814257D12C488078401FFF
:1003C000032190FBF1F0C5B228480079A8424CD136
:1003D00000200090254840792449897940EA01208D
:1003E0000090BDF8001022A001F0B6F800202349CB
:1003F00008702BE02046611CCCB21C49085C2049E7
:100400001E4A127801F822001848015D0246601C5D
:10041000105C41EA00201A49184A127801EB820167
:100420004880A01CC4B21648144B1B7800EB830014
:1004300042881348114B1B7810F8231011A001F0CB
:100440008BF80E480078401C0C4908700B48007867
:10045000A842CFDBBDF800202946094801F046F943
:1004600080210248FFF787FE00BF38BD240000202E
:1004700054696D653A25640A000000001C000020E4
:10048000A400002049443A25642C506F73693A2532
:10049000640D0A0070472DE9F04102460025002650
:1004A000002000230024002791F803C00CF00F0562
:1004B00091F803C00CF0100CBCF1000F03D091F8C0
:1004C00002C04CEA050591F800C0BCF1000F31D024
:1004D000146800202BE04FF0010C0CFA00F3B1F887
:1004E00000C00CEA03069E4220D183004FF00F0C9F
:1004F0000CFA03F7BC4305FA03FC4CEA040491F838
:1005000003C0BCF1280F06D14FF0010C0CFA00FC1F
:10051000C2F814C00AE091F803C0BCF1480F05D13D
:100520004FF0010C0CFA00FCC2F810C0401C082867
:10053000D1D31460B1F800C0BCF1FF0F34DD5468B2
:1005400000202EE000F1080C4FF0010808FA0CF32F
:10055000B1F800C00CEA03069E4221D183004FF09F
:100560000F0C0CFA03F7BC4305FA03FC4CEA040435
:1005700091F803C0BCF1280F05D100F1080C08FA6E
:100580000CF8C2F8148091F803C0BCF1480F07D1F1
:1005900000F1080C4FF0010808FA0CF8C2F81080BE
:1005A000401C0828CED35460BDE8F081F0B50A465F
:1005B000002300240021002500F00046B6F1004F82
:1005C00002D11D4EF16901E01B4E7168C0F3034575
:1005D00083B200F44016B6F5401F08D121F07061D7
:1005E000154E766826F07066134F7E6012E000F4B8
:1005F0008016B6F5801F06D1032606FA05F4A1433E
:1006000041F0706106E0460D360103FA06F6B1438B
:1006100041F0706122B1460D360103FA06F631430E
:1006200000F00046B6F1004F02D1034EF16101E047
:10063000014E7160F0BD0000000001404161704753
:100640000161704700BFFEE71CB50121082000F0E2
:100650008DF84FF40070ADF8040010208DF80700FD
:1006600003208DF8060001A90F48FFF714FF4FF48F
:1006700000710D48FFF7E4FF0121102000F076F82B
:100680004FF40050ADF8000010208DF80300032057
:100690008DF8020069460548FFF7FDFE4FF4005152
:1006A0000248FFF7CBFF1CBD000C014000100140C9
:1006B00000BFFEE77047000070B5002100230F2245
:1006C000C47804B3154C246804F4E064C4F5E06411
:1006D000210AC1F10403CA40447804FA03F1847882
:1006E0001440214309010E4C0678A155047804F00A
:1006F0001F050124AC4005786D11AD0005F1E02522
:10070000C5F8004109E0047804F01F050124AC405D
:10071000044D0678761145F8264070BD0CED00E0DA
:1007200000E400E080E100E07047000029B1064AE3
:10073000D2690243044BDA6104E0034AD26982437E
:10074000014BDA61704700000010024029B1064AEF
:1007500012690243044B1A6104E0034A126982439E
:10076000014B1A61704700000010024029B1064A8F
:1007700092690243044B9A6104E0034A92698243FE
:10078000014B9A61704700000010024029B1064AEF
:10079000D2680243044BDA6004E0034AD268824321
:1007A000014BDA60704700000010024030B50021B4
:1007B0000022002400232D4D6D6805F00C0121B1AD
:1007C000042905D0082923D105E0294D056022E040
:1007D000274D05601FE0254D6D6805F47012234D0F
:1007E0006D6805F48034022505EB92421CB9214D59
:1007F000554305600BE01D4D6D6805F400351DB1D6
:100800001C4D5543056002E0194D5543056002E05B
:10081000174D056000BF00BF144D6D6805F0F00175
:100820000909154D6B5C0568DD4045600F4D6D682D
:1008300005F4E061090A104D6B5C4568DD40856098
:100840000A4D6D6805F46051C90A0B4D6B5C456833
:10085000DD40C560054D6D6805F44041890B074DCD
:100860006B5CC568B5FBF3F5056130BD0010024057
:1008700000127A0000093D00000000201000002056
:10088000704710B500F002F810BD00000CB5002054
:10089000019000903348006840F48030314908608E
:1008A00000BF3048006800F4003000900198401C00
:1008B0000190009818B90198B0F5A06FF1D12948BE
:1008C000006800F4003010B10120009001E0002029
:1008D00000900098012843D12348006840F01000A0
:1008E000214908600846006820F0030008600846B7
:1008F000006840F0020008601A48406819494860E2
:100900000846406848600846406840F48060486097
:100910000846406820F47C1048600846406840F46F
:10092000E81048600846006840F08070086000BF2A
:100930000C48006800F000700028F9D009484068B1
:1009400020F00300074948600846406840F0020074
:10095000486000BF0348406800F00C000828F9D147
:100960000CBD00000010024000200240042808D105
:100970004FF0E021096941F004014FF0E0221161DC
:1009800007E04FF0E021096921F004014FF0E02277
:10099000116170477047000010B504466FF0040005
:1009A000FFF7E4FFE11704EB5171C1F3C701074AF8
:1009B00011701046007800EB4001C1EBC0104FF6FB
:1009C000FF7101EAC0000249088010BD1400002038
:1009D0001600002010B51348006840F001001149CE
:1009E000086008464068104908400E4948600846BB
:1009F00000680E4908400B4908600846006820F46A
:100A0000802008600846406820F4FE0048604FF4EB
:100A10001F008860FFF735FF4FF000600449086051
:100A200010BD0000001002400000FFF8FFFFF6FEBE
:100A300008ED00E01FB501210846FFF777FE4FF0F3
:100A4000804000F047F942F20F70ADF808004720EF
:100A5000ADF804000020ADF80A00ADF8060001A9C9
:100A60004FF0804000F0A8FB0121880700F022F938
:100A700001221146900700F032FA02208DF80100A1
:100A80001C208DF8000001208DF803008DF8020075
:100A90006846FFF711FE0121880700F00EF91FBD1F
:100AA00010B50121880700F009FA88B301218807F1
:100AB00000F000F917480088401C1649088000F033
:100AC0003BFD1449088800EBD0714910A0EB4101AF
:100AD00009B900F03FFD0F480088052190FBF1F2B5
:100AE00001FB120008B900F026FD0A480088192110
:100AF00090FBF1F201FB120008B900F01FFD054860
:100B0000008841F28831884202D1012001490880E1
:100B100010BD00001800002030B589B005460C4615
:100B200001211020FFF722FE01210220FFF7FEFD28
:100B300001210846FFF71AFE4FF47070ADF804006B
:100B400018208DF8070003208DF8060001A923481E
:100B5000FFF7A1FC01212248FFF728FDADF81C504A
:100B6000ADF818400020ADF81E00ADF81A0006A937
:100B70001C4800F021FB6020ADF808000220ADF811
:100B800010000120ADF80A0002A9164800F0B0F9E3
:100B900002A9144800F002FA02A9124800F05EFA15
:100BA00002A9104800F0B4FA08210E4800F0ECF950
:100BB00008210C4800F044FA08210A4800F09EFA87
:100BC0000821084800F0E2FA0121064800F066F822
:100BD0000121044800F071F809B030BD0010014057
:100BE000000C1A000004004030B589B005460C46E0
:100BF00001210820FFF7BAFD01210420FFF796FD2F
:100C000001210846FFF7B2FD4FF4E070ADF8040093
:100C100018208DF8070003208DF8060001A91D4853
:100C2000FFF739FCADF81C50ADF818400020ADF8C6
:100C30001E00ADF81A0006A9174800F0BDFA6020A2
:100C4000ADF808000220ADF810000120ADF80A0050
:100C500002A9114800F04CF902A90F4800F09EF9D2
:100C600002A90D4800F0FAF908210B4800F08CF9B0
:100C70000821094800F0E4F90821074800F03EFA8D
:100C80000121054800F00AF80121034800F015F899
:100C900009B030BD000C01400008004021B10288BD
:100CA00042F08002028004E002884FF67F731A400F
:100CB00002807047CA430282704721B1028842F025
:100CC0000102028004E002884FF6FE731A4002809F
:100CD0007047000010B504466848844208D10121DD
:100CE000C014FFF753FD0021E014FFF74FFDC4E0EF
:100CF000B4F1804F08D101210846FFF727FD0021FC
:100D00000120FFF723FDB8E05D48844208D10121AE
:100D10000220FFF71BFD00210220FFF717FDACE0CA
:100D20005848844208D101210420FFF70FFD00211B
:100D30000420FFF70BFDA0E05348844208D10121B5
:100D40000820FFF703FD00210820FFF7FFFC94E0D7
:100D50004E48844208D101211020FFF7F7FC002102
:100D60001020FFF7F3FC88E04948844208D10121B4
:100D70002020FFF7EBFC00212020FFF7E7FC7CE0C0
:100D80004448844208D101214014FFF7FFFC0021B0
:100D90006014FFF7FBFC70E03F48844209D1012159
:100DA000C804FFF7F3FC00214FF40020FFF7EEFC2E
:100DB00063E03A48844209D101210805FFF7E6FCC7
:100DC00000214FF48010FFF7E1FC56E034488442E4
:100DD00009D101214805FFF7D9FC00214FF400108B
:100DE000FFF7D4FC49E02F48844208D1012140207C
:100DF000FFF7ACFC00214020FFF7A8FC3DE02A48AB
:100E0000844208D101218020FFF7A0FC002180202E
:100E1000FFF79CFC31E02548844208D10121801570
:100E2000FFF794FC0021A015FFF790FC25E0204877
:100E3000844209D101210804FFF7A8FC00214FF4E6
:100E40008030FFF7A3FC18E01A48844209D1012141
:100E50004804FFF79BFC00214FF40030FFF796FC9D
:100E60000BE01548844208D101218804FFF78EFC6D
:100E700000214FF48020FFF789FC10BD002C0140B9
:100E80000004004000080040000C0040001000403A
:100E90000014004000340140004C0140005001406B
:100EA0000054014000180040001C00400020004099
:100EB00000400140004401400048014030B5024676
:100EC000002000230024158A05EA0103958905EA1C
:100ED000010413B10CB1012000E0002030BD1AB1B3
:100EE00083890B43838102E083898B43838170472D
:100EF00070B5002400220023058C4FF6FE763540A5
:100F00000584028C8388048B4FF68F752C40B51EA8
:100F10002C400D882C43751E2A400D892A434D888C
:100F20002A43144DA8420BD0134DA84208D0134DAC
:100F3000A84205D0124DA84202D0124DA84213D1AA
:100F40004FF6F7752A404D892A434FF6FB752A4024
:100F50008D882A434FF6FF652B404FF6FF552B40F7
:100F60008D892B43CD892B4383800483CD8885864F
:100F7000028470BD002C014000340140004001405B
:100F800000440140004801400A460021018B4FF611
:100F9000F7731940114301837047000070B50024B6
:100FA00000220023058C4FF6EF7635400584028C35
:100FB0008388048B48F6FF752C404FF6FF452C4084
:100FC0000D884FF6FF7606EA05252C434FF6DF75B0
:100FD0002A400D8906EA05152A434D8806EA0515BB
:100FE0002A43154DA84202D0144DA8421DD14FF6F8
:100FF0007F752A404D894FF6FF7606EA05152A438C
:101000004FF6BF752A408D8806EA05152A434FF62C
:10101000FF352B404FF2FF752B408D8906EA850581
:101020002B43CD8906EA85052B4383800483CD8835
:101030000587028470BD0000002C0140003401408F
:101040000A460021018B4FF2FF7319404FF6FF73E0
:1010500003EA0223194301837047000070B500249E
:1010600000220023058C4FF6FF6635400584028C74
:101070008388848B4FF68F752C404FF6FC752C407F
:101080000D882C434FF6FF552A400D894FF6FF7609
:1010900006EA05252A434D8806EA05252A43154D0B
:1010A000A84202D0144DA8421DD14FF2FF752A402C
:1010B0004D894FF6FF7606EA05252A434FF6FF35A0
:1010C0002A408D8806EA05252A434EF6FF752B40F7
:1010D0004DF6FF752B408D8906EA05152B43CD890A
:1010E00006EA05152B4383808483CD888587028497
:1010F00070BD0000002C0140003401400A46002170
:10110000818B4FF6F77319401143818370470000BC
:1011100070B5002200230024058C4EF6FF76354082
:101120000584038C8488828B48F6FF752A404FF62D
:10113000FF452A400D884FF6FF7606EA05252A432B
:101140004DF6FF752B400D8906EA05352B434D887A
:1011500006EA05352B430B4DA84202D00A4DA842A2
:1011600008D14BF6FF752C408D894FF6FF7606EAC5
:1011700085152C4384808283CD88A0F84050038459
:1011800070BD0000002C0140003401400A460021DF
:10119000818B4FF2FF7319404FF6FF7303EA02236E
:1011A0001943818370478186704701877047818723
:1011B0007047A0F840107047002202881D4B9842EB
:1011C0000ED01D4B98420BD0B0F1804F08D01B4B76
:1011D000984205D01A4B984202D01A4B984204D13B
:1011E0004FF68F731A404B881A43174B984207D01B
:1011F000164B984204D04FF6FF431A40CB881A434F
:1012000002808B8883850B8803850A4B98420BD01C
:10121000094B984208D00E4B984205D00D4B98428E
:1012200002D00D4B984201D10B7A038601238382B1
:1012300070470000002C01400034014000040040D1
:1012400000080040000C0040001000400014004066
:1012500000400140004401400048014010B540F208
:101260002551104800F0A0F8D8B10E4800F058F908
:101270000D490E4A127888540C480078401C0B49DE
:1012800008700846007802280BDD07488078801C2B
:101290000978884205D101200549087000200349DA
:1012A000087010BD00380140240000201B00002001
:1012B0001A00002010B586B0044601210420FFF773
:1012C00055FA01218803FFF751FA4FF40070ADF889
:1012D000140003208DF8160018208DF8170005A9BA
:1012E0001E48FFF7D8F84FF48060ADF814000420D2
:1012F0008DF8170005A91948FFF7CDF801940020D3
:10130000ADF80800ADF80A00ADF80C00ADF810001B
:101310000C20ADF80E0001A9114800F095F801214C
:101320000F4800F028F840210D4800F01BF801227A
:1013300040F225510A4800F061F825208DF80000A0
:1013400003208DF801008DF8020001208DF80300C4
:101350006846FFF7B1F906B010BD00000008014073
:101360000038014001F40072B2F5007F00D100BFE7
:10137000CA430280704721B1828942F400528281BF
:1013800004E082894DF6FF731A408281704702465D
:101390000020B1F5007F00D100BF13880B400BB1D6
:1013A000012000E00020704770B5024600240023B1
:1013B0000025002040F66A16B14200D100BFC1F3FB
:1013C000421501F01F03012606FA03F3012D02D195
:1013D0009689334006E0022D02D1168A334001E09F
:1013E000968A33400C12012606FA04F4168834401B
:1013F00013B10CB1012000E0002070BDF0B5034630
:10140000002400260025002040F66A17B94200D1CA
:1014100000BF1846C1F3421401F01F06012707FA66
:1014200006F5012C01D10C3004E0022C01D1103062
:1014300000E014301AB107682F43076002E0076824
:10144000AF430760F0BD00002DE9F04786B00546C8
:101450000E460024A24600BFA1460027B08900B175
:1014600000BF2F462C8A4CF6FF700440F0880443DE
:101470002C82AC894EF6F3100440B08831890843C1
:10148000718908430443AC81AC8A4FF6FF400440A5
:10149000B0890443AC8201A8FFF788F91F4887424E
:1014A00002D1DDF810A001E0DDF80CA0A88900F45D
:1014B000004040B10AEBCA0000EB0A103168490055
:1014C000B0FBF1F807E00AEBCA0000EB0A10316844
:1014D0008900B0FBF1F86420B8FBF0F004012009AA
:1014E000642101FB1089A88900F4004040B132203A
:1014F00000EBC900B0FBF1F000F00700044308E086
:10150000322000EB09106421B0FBF1F000F00F0075
:1015100004432C8106B0BDE8F0870000003801408C
:1015200001468888C0F308007047C1F30802828032
:10153000704700BFFEE7704770470000044800682E
:1015400008B9012000E00020014908607047000050
:10155000A4812142704700000FB4054B10B503A9C8
:10156000044A029800F018F810BC5DF814FB000063
:10157000111800082000002002E008C8121F08C14E
:10158000002AFAD170477047002001E001C1121F04
:10159000002AFBD1704700002DE9FF4F89B09B4620
:1015A0000446002506E025280BD05A460B999047A3
:1015B000641C6D1C20780028F5D10DB02846BDE8CC
:1015C000F08F0027B8460122474900E0074314F88E
:1015D000013F203B02FA03F00842F7D120782E2881
:1015E00019D114F8010F47F004072A280ED06FF024
:1015F0002F022078A0F1300109290CD808EB8801CE
:1016000002EB410100EB0108641CF2E70A98641C3C
:1016100050F8048B0A9020780028CED0642808D097
:10162000692806D075281ED05A460B9990476D1C24
:1016300058E00A994FF00A0901C90A91002802DA14
:1016400040422D2102E0390504D52B218DF82010D0
:10165000012103E0F90704D02021F7E78A4608AE0C
:101660000DE00021FAE70A994FF00A0901C90A9131
:10167000F7E74946FEF78AFD303106F8011D0028DC
:10168000F7D1ADEB060000F12009780701D44FF047
:101690000108C84502DDA8EB090000E000208046F3
:1016A000002706E008A85A46C05D0B9990476D1CBC
:1016B0007F1C5745F6DB04E030205A460B999047D3
:1016C0006D1CB8F10001A8F10108F5DC05E016F881
:1016D000010B5A460B9990476D1CB9F10001A9F115
:1016E0000109F4DC641C65E7092801002DE9F041DB
:1016F00005460E4617460024082E01DC012E01DAAD
:10170000BDE8F081002455E005EB8400408840F6F8
:101710003401884206DC05EB8400408840F2DC514D
:10172000884200DAECE715F8240009283ED2DFE809
:1017300000F03D050C131A21282F360005EB84001C
:1017400041881E48FFF72FFD31E005EB84004188FA
:101750001A48FFF72AFD2AE005EB84004188174864
:10176000FFF725FD23E005EB840041881348FFF7D0
:1017700020FD1CE005EB840041881148FFF713FDB4
:1017800015E005EB840041880D48FFF70EFD0EE0E3
:1017900005EB840041880A48FFF709FD07E005EBE7
:1017A000840041880648FFF704FD00E0A8E700BF79
:1017B000601CC4B2B442A7DB00BFA1E70004004034
:1017C000000800400146114A12884A434FF0E023C6
:1017D0005A6100229A611A46126942F001021A61A6
:1017E00000BF4FF0E022106900F001021AB100F4CE
:1017F0008032002AF5D04FF0E022126922F0010277
:101800004FF0E0231A6100229A6170471600002011
:1018100070B504460D46E1B20548FFF786FE00BFED
:1018200080210348FFF7B3FD0028F9D0204670BDA2
:1018300000380140FEF708FF4820FFF7ADF8FFF73A
:10184000F9F840F2CF214FF4FA60FFF765F940F262
:10185000CF214FF4FA60FFF7C7F94FF4E130FFF7FB
:1018600029FDFEF763FD19E00D480078012815D128
:101870000C48C078032804D0072805D00B2809D1CC
:1018800005E0FEF78FFD05E0FEF726FD02E0FEF71E
:1018900069FD00BF00BF002001490870E4E70000B7
:1018A0001A00002024000020C818000800000020B2
:1018B0002400000078150008EC180008240000201F
:1018C000A4040000881500080000000001020304C1
:1018D00001020304060708090204060800000000CC
:0C18E000000000000000000000000000FC
:0400000508000131BD
:00000001FF
